:060000000A128A11122809
:10000800FE00030EF0000408F1000A08F200831253
:1000180003137F08F3000A128A11E62D0A128A11C7
:100028001528F601F701F801F9018313203084003F
:1000380046300A128A1121260A128A11B430FD00AC
:100048000530FE00FC30FF00A03084000A128A113F
:1000580014260A128A115C30FD000530FE00D030EB
:10006800FF00463084000A128A11142683010A12FE
:100078008A113E2883120313E201E301E401E5013A
:10008800E601E7010A128A11A8250A128A118312C9
:1000980003133D083C0403194B28BC01BD01013082
:1000A800E2070318E30A0030E3070A128A112D2336
:1000B8000A128A110A128A1178250A128A11013045
:1000C8008312031332063304031D8E283508803A41
:1000D800FF0081307F02031D73282B303402031C7C
:1000E8008528831203130612B201B301BE01BF01B2
:1000F800B401B501C201C301B801B901F601F701A4
:100108008E28013083120313B4070318B50A003090
:10011800B5070616013076067704031D952886155F
:1001280096288611013044064504031DB228C201F1
:10013800C301C401C501B201B301B401B501BE01D7
:10014800BF01F601F7018611B801B901A201A301A7
:10015800DA01DB01A001A101A401A50101304206D9
:100168004304031D5A29E201E3010130AA070318D9
:10017800AB0A0030AB070130E4070318E50A00308A
:10018800E5076508803AFF0080307F02031DCE280E
:100198001430640203185129831203136708803A44
:1001A800FF0080307F02031DDB2804306602031C39
:1001B800E428013083120313E6000030E7003B29EE
:1001C800013083120313E6070318E70A0030E70734
:1001D8003B292308DD01DD072208DC01DC0767086D
:1001E800DF01DF076608DE01DE070A128A1104252F
:1001F8000A128A115A29831203135B08DD01DD07ED
:100208005A08DC01DC076708DF01DF076608DE0142
:10021800DE070A128A1104250A128A115A29831242
:1002280003132108DD01DD072008DC01DC0767086E
:10023800DF01DF076608DE01DE070A128A110425DE
:100248000A128A115A29831203132508DD01DD07D2
:100258002408DC01DC076708DF01DF076608DE0128
:10026800DE070A128A1104250A128A115A298312F2
:1002780003136708003A031942295A296608013A04
:100288000319ED28033A0319FF28013A0319132922
:10029800073A031927295A295A2931308312031397
:1002A80064066504031D5A29E401E501013083123F
:1002B800031336063704031D082A0130BA0000303C
:1002C800BB00E201E3010130AA070318AB0A0030C2
:1002D800AB070130E4070318E50A0030E5076508B5
:1002E800803AFF0080307F02031D7C2914306402AD
:1002F8000318FF29831203136708803AFF00803030
:100308007F02031D892904306602031C92290130EB
:1003180083120313E6000030E700E9290130831255
:100328000313E6070318E70A0030E707E929290855
:10033800DD01DD072808DC01DC076708DF01DF07CE
:100348006608DE01DE070A128A1104250A128A11DC
:10035800082A831203132F08DD01DD072E08DC01AC
:10036800DC076708DF01DF076608DE01DE070A121F
:100378008A1104250A128A11082A831203132708EE
:10038800DD01DD072608DC01DC076708DF01DF0780
:100398006608DE01DE070A128A1104250A128A118C
:1003A800082A831203132D08DD01DD072C08DC0160
:1003B800DC076708DF01DF076608DE01DE070A12CF
:1003C8008A1104250A128A11082A8312031367085E
:1003D800003A0319F029082A6608013A03199B29EB
:1003E800033A0319AD29013A0319C129073A031938
:1003F800D529082A082A31308312031364066504B4
:10040800031D082AE401E5010130831203133606AF
:100418003704031D1A2A013042064304031D1A2A11
:10042800B601B701C201C301BE01BF0137083604D6
:10043800031DA02A43084204031DA02A6708803A26
:10044800FF0080307F02031D2B2A04306602031C44
:10045800342A013083120313E6000030E7008B2AA8
:10046800013083120313E6070318E70A0030E70791
:100478008B2A2908DD01DD072808DC01DC0767086D
:10048800DF01DF076608DE01DE070A128A1104258C
:100498000A128A11A02A831203132F08DD01DD072F
:1004A8002E08DC01DC076708DF01DF076608DE01CC
:1004B800DE070A128A1104250A128A11A02A831259
:1004C80003132708DD01DD072608DC01DC076708C0
:1004D800DF01DF076608DE01DE070A128A1104253C
:1004E8000A128A11A02A831203132D08DD01DD07E1
:1004F8002C08DC01DC076708DF01DF076608DE017E
:10050800DE070A128A1104250A128A11A02A831208
:1005180003136708003A0319922AA02A6608013AC9
:1005280003193D2A033A03194F2A013A0319632A8A
:10053800073A0319772AA02A0130831203132B06DE
:10054800031DA82A8F302A06031DC32A77087604BC
:10055800031DB12ABE01BF01B52A0130B800003021
:10056800B900BA01BB01B601B701C201C301AA01B2
:10057800AB010130E2070318E30A0030E3076330F8
:1005880062066304031D4B282908803AFF00803067
:100598007F02031DD12A09302802031C222B831253
:1005A8000313E201E301A801A9012F08803AFF0023
:1005B80080307F02031DE22A05302E02031C192B0E
:1005C80083120313AE01AF012708803AFF00803081
:1005D8007F02031DF12A04302602031C102B83120C
:1005E8000313A601A7012D08803AFF0080307F027F
:1005F800031D002B02302C02031C072B831203134C
:10060800AC01AD014B28013083120313AC0703186A
:10061800AD0A0030AD074B28013083120313A6073B
:100628000318A70A0030A7074B28013083120313C9
:10063800AE070318AF0A0030AF074B28013083120A
:100648000313A8070318A90A0030A907E201E30168
:100658004B2801308312031342064304031DF12B78
:100668000618AA2B06080139DC0078085C06DD00AC
:100678007908DE005E085D040319AA2BAA01AB0104
:100688000130F6000030F7002308803AFF00803080
:100698007F02031D512B09302202031CA12B831258
:1006A8000313A201A30106175B08803AFF008030FC
:1006B8007F02031D612B05305A02031C982B8312FD
:1006C8000313DA01DB012108803AFF0080307F0242
:1006D800031D702B09302002031C8F2B8312031378
:1006E800A001A1012508803AFF0080307F02031D88
:1006F8007F2B05302402031C862B83120313A401CD
:10070800A501AA2B013083120313A4070318A50A15
:100718000030A507AA2B013083120313A007031882
:10072800A10A0030A107AA2B013083120313DA07AC
:100738000318DB0A0030DB07AA2B013083120313EE
:10074800A2070318A30A0030A30706130619E72C0B
:10075800060CDC005C0C0139DD0040085D06DE009B
:100768004108DF005F085E040319E72C0130F6003A
:100778000030F700AA01AB012108803AFF00803061
:100788007F02031DC92B04302002031CE82B8312AF
:100798000313A001A1012508803AFF0080307F02E1
:1007A800031DD82B02302402031CDF2B83120313F2
:1007B800A401A501E72C013083120313A407031831
:1007C800A50A0030A507E72C013083120313A00700
:1007D8000318A10A0030A107E72C0618672C0608A1
:1007E8000139DC0078085C06DD007908DE005E0867
:1007F8005D040319672CAA01AB010130B600003073
:10080800B7002908803AFF0080307F02031D0E2CB4
:1008180009302802031C5E2C83120313A801A901C6
:1008280006162F08803AFF0080307F02031D1E2C19
:1008380005302E02031C552C83120313AE01AF01A1
:100848002708803AFF0080307F02031D2D2C0930D5
:100858002602031C4C2C83120313A601A7012D08A2
:10086800803AFF0080307F02031D3C2C05302C02AB
:10087800031C432C83120313AC01AD01672C013018
:1008880083120313AC070318AD0A0030AD07672CB9
:10089800013083120313A6070318A70A0030A7071D
:1008A800672C013083120313AE070318AF0A003018
:1008B800AF07672C013083120313A8070318A90A8E
:1008C8000030A90706120619AD2C060CDC005C0CDA
:1008D8000139DD0040085D06DE004108DF005F08E1
:1008E8005E040319AD2C0130B6000030B700AA0130
:1008F800AB012708803AFF0080307F02031D862C59
:1009080009302602031CA52C83120313A601A70194
:100918002D08803AFF0080307F02031D952C05309A
:100928002C02031C9C2C83120313AC01AD01AD2CCB
:10093800013083120313AC070318AD0A0030AD076A
:10094800AD2C013083120313A6070318A70A003041
:10095800A7078618E72C060C0139DC0030085C066E
:10096800DD003108DE005E085D040319E72C013064
:10097800BE070318BF0A0030BF073F08803AFF00D0
:1009880080307F02031DCA2C02303E02031CD42C87
:10099800013083120313C4000030C500BE01BF013B
:1009A800831203133F08803AFF0080307F02031D43
:1009B800DF2C02303E020318E72C013083120313A8
:1009C800C2000030C3008312031306080139DC009B
:1009D800DD015C08F8005D08F900060CDC005C0C21
:1009E8000139DD00DE015D08C0005E08C100060CAB
:1009F8000139DC00DD015C08B0005D08B1000800C9
:100A08000830F400740883120313E100F030F40096
:100A18007408E000013076067704031D582D013074
:100A28005E065F04031D382D6108F4005E08FF3E72
:100A3800013E202D0310F40CFF3E031D1E2D7408EB
:100A4800FF3AF5007508E10061086006F4007408D3
:100A5800E100610885005C08F4007407A03E84008A
:100A680083130008880008006108F4005E08FF3E50
:100A7800013E402D0310F40CFF3E031D3E2D74086B
:100A8800FF3AF5007508E10061086006F400740893
:100A9800E100610885005C08F4007407463E8400A4
:100AA80083130008880008006108F4005E08FF3E10
:100AB800013E602D0310F40CFF3E031D5E2D7408EB
:100AC800FF3AF5007508E10061086006F400740853
:100AD800E100610885005C08F4007407463E840064
:100AE80083130008880008008312031329082306CB
:100AF800031D802D28082206031D08002F085B0609
:100B0800031D882D2E085A06031D080027082106F4
:100B1800031D902D26082006031D08002D08250614
:100B2800031D982D2C082406031D080001303806E3
:100B38003904031D08003B083A04031D080001306E
:100B4800B2000030B3000800073083160313860094
:100B58008501FF3083120313850083160313880170
:100B68008312031388018316031381018B170B1754
:100B78008B150B1006309F00831203138C01013074
:100B8800831603138C00EF30831203138E00D830C2
:100B98008F000130900008003F34003406340034E0
:100BA8005B3400344F340034663400346D34003420
:100BB8007D340034073400347F3400346F3400341B
:100BC800013400340C1CF12D0130BC000030BD0094
:100BD800EF308E00D8308F000C107308FF007208B9
:100BE8008A0071088400700E8300FE0E7E0E0900D4
:100BF800BF34003486340034DB340034CF3400345E
:100C0800E6340034ED340034FD34003487340034E5
:100C1800FF340034EF3400347E088A007F088200F5
:100C280010260A128A118000840A04087D06031916
:100C38000034FF0A0319FE0A142E64008001840A96
:0A0C48000406031900340406222EEE
:02400E0079F740
:00000001FF
