:060000000A128A11122809
:10000800FE00030EF0000408F1000A08F200831253
:1000180003137F08F3000A128A118C290A128A1125
:100028001528C201C30183133430FD000130FE00DE
:10003800AB30FF00203084000A128A11C3218301EB
:100048000A128A11272883120313B601B701C001C7
:10005800C101B801B9010630BA000030BB00053053
:10006800BC000030BD000130BE000030BF000A12E5
:100078008A1164210A128A11831203134308420465
:1000880003194028C201C3010130B6070318B70A93
:100098000030B7074108803AFF0080307F02031D17
:1000A800572804304002031C6028013083120313D0
:1000B800C0000030C100B728013083120313C00705
:1000C8000318C10A0030C107B7283908F501F50738
:1000D8003808F401F4074108F701F7074008F6016A
:1000E800F6070A128A113A210A128A11CC288312B9
:1000F80003133B08F501F5073A08F401F407410832
:10010800F701F7074008F601F6070A128A113A21A3
:100118000A128A11CC28831203133D08F501F5074A
:100128003C08F401F4074108F701F7074008F60115
:10013800F6070A128A113A210A128A11CC28831268
:1001480003133F08F501F5073E08F401F4074108D9
:10015800F701F7074008F601F6070A128A113A2153
:100168000A128A11CC28831203134108003A031992
:10017800BE28CC284008013A03196928033A031914
:100188007B28013A03198F28073A0319A328CC289A
:1001980063308312031336063704031D40283908D9
:1001A800803AFF0080307F02031DDC2809303802C6
:1001B800031C2E2983120313B601B701B801B90134
:1001C80006173B08803AFF0080307F02031DEE28A7
:1001D80005303A02031C252983120313BA01BB0117
:1001E8003D08803AFF0080307F02031DFD2809305A
:1001F8003C02031C1C2983120313BC01BD013F08E8
:10020800803AFF0080307F02031D0C2905303E0232
:10021800031C132983120313BE01BF0140280130B8
:1002280083120313BE070318BF0A0030BF07402814
:10023800013083120313BC070318BD0A0030BD0741
:100248004028013083120313BA070318BB0A003091
:10025800BB074028013083120313B8070318B90AF3
:100268000030B907B601B701061340280830F80076
:10027800780883120313B500F030F8007808B4004A
:100288003508F8007608FF3E013E4C290310F80CAB
:10029800FF3E031D4A297808FF3AF9007908B5009E
:1002A80035083406F8007808B50035088500740864
:1002B800F8007807203E84008313000888000800AF
:1002C80007308316031386008501FF30831203135A
:1002D800850083160313880183120313880183168C
:1002E800031381018B170B178B150B1006309F001A
:1002F800831203138C010130831603138C00EF3033
:10030800831203138E00D8308F000130900008004C
:100318000C1CA0290130C2000030C300861B98299C
:100328008312031386179B29831203138613EF3056
:100338008E00D8308F000C107308FF0072088A00F6
:1003480071088400700E8300FE0E7E0E09003F3493
:100358000034063400345B3400344F3400346634DF
:1003680000346D3400347D340034073400347F3475
:1003780000346F3400347E088A007F088200BF2171
:100388000A128A118000840A04087D0603190034C1
:08039800FF0A0319FE0AC32944
:02400E0079F740
:00000001FF
